:100000000C9430020C9477020C9477020C947702D3
:100010000C9477020C9477020C9477020C9477027C
:100020000C9477020C9477020C94951B0C94681C2A
:100030000C94C4120C9477020C9477020C947702FF
:100040000C9477020C9477020C9477020C9477024C
:100050000C9477020C9425130C9477020C9477027D
:100060000C9477020C9477020C9477020C9477022C
:100070000C9477020C9477020C9477020C9477021C
:100080000C9477020C9477020C9477020C9477020C
:100090000C9477020C9477020C9477020C947702FC
:1000A0000C9477020C9477020C94770229003A00A2
:1000B0003B003C003D003E003F004000410042004C
:1000C0004300440045002B0014001A0008001500EE
:1000D00017001C0018000C001200130034004C0024
:1000E000390004001600070009000A000B000D008B
:1000F0000E000F00330028003100E1001D001B003E
:10010000190006000500110010003600370000003D
:10011000E5000000E000E300E20002512C00015184
:100120005000520051004F004B004E0000002903C8
:1001300001000100010001000100010001000100B7
:1001400001000100010001002B0014011A0101004F
:10015000150117011C01010052004A0013010100A2
:100160004C05010004011601070109012A004C0099
:10017000500051004F004D0028010100E1001D0119
:100180001B011901060105014B004E004A024D02F8
:100190000000E5000000E000E300E20028002C0081
:1001A0000100A800A900AA00AD00AE00E400000014
:1001B000350035023602370201000100010001005E
:1001C000010036003700010001002602380220023B
:1001D000240221021E0222022400250026001F0202
:1001E00031004C002F00330034022E022D0031026A
:1001F0002E002100220023002D02300027022F02B2
:100200003302340025023800230227001E001F009D
:100210002000000030020000E000E100E2000100E8
:100220002C0028432A004C00E500E4004600490069
:1002300000000100010001000100010001000100B7
:100240000100010001000100010001002B00F60087
:10025000F800F000150117011C01FD00F900FE0077
:10026000010001004C050100F700F200F100F3006D
:100270002A004C00F400FA00F500FF0028010100FC
:10028000E1001D011B011901060105014B004E0093
:100290004A024D020000E5000000E000E300E20039
:1002A00028002C00010001000100010001000100F4
:1002B000E400000012036B006500790062006F002B
:1002C0006100720064000000160371006D006B0095
:1002D0006200750069006C00640065007200000037
:1002E0000403090409026D00040100A0FA090400D6
:1002F0000001030101000921110100012240000752
:1003000005810308000A0904010001030102000934
:100310002111010001224D000705820308000A098E
:10032000040200010300000009211101000122362E
:10033000000705830308000A090403000103000005
:100340000009211101000122390007058403200062
:10035000011201100100000008EDFE6060010001C3
:1003600002000105010906A101050719E029E715A9
:1003700000250195087501810205081901290595D7
:100380000575019102950175039101050719002971
:10039000F71500250195F875018102C00501098056
:1003A000A10185021601002603001A81002A83009C
:1003B000751095018100C0050C0901A10185031686
:1003C0000100269C021A01002A9C027510950181E9
:1003D00000C005010902A1010901A10005091901D7
:1003E0002905150025019505750181029501750303
:1003F00081010501093009311581257F95027508B4
:10040000810609381581257F950175088106050C3F
:100410000A38021581257F950175088106C0C0053F
:10042000010906A101050719E029E7150025019535
:1004300008750181029501750881010508190129D6
:10044000059505750191029501750391010507193F
:100450000029FF150026FF00950675088100C000E1
:1004600011241FBECFEFDAE0DEBFCDBF04B603FE1E
:1004700027C08091990290919A02A0919B02B0911D
:100480009C028730904BA740B04BD1F41092990258
:1004900010929A0210929B0210929C0214BE84B792
:1004A000877F84BF0FB6F894A8958091600088611B
:1004B00080936000109260000FBEE0E0F8E30995C1
:1004C00011E0A0E0B1E0ECEEFFE302C005900D9278
:1004D000AC38B107D9F722E0ACE8B1E001C01D9219
:1004E000A939B207E1F70E94EB180C94AC1F0C94E9
:1004F000000090E080E008950895089581E0089557
:10050000089581E008950C947E020E94320B2FEF33
:1005100084E39CE0215080409040E1F700C000005F
:100520000C944813EF92FF920F931F93CF93DF9396
:100530008C01FC01E080F1808091C601811140C0F6
:1005400082818823C1F1C7010E949C10C82F682FA7
:10055000C7010E944510B7018C2F0E94CA03EC010D
:10056000B8010E948302882309F44BC0B801CE0170
:100570000E944A05882309F444C0C531F0E7DF072B
:1005800020F5C23080E7D80708F04DC0C115E0E77C
:10059000DE0791F1C130D047E1F181E080938E0117
:1005A00080938F01C801DF91CF911F910F91FF9030
:1005B000EF900C948102C7010E947310C82FCBCF1B
:1005C000C7010E949C10B701C8CFCC3380E7D80781
:1005D00009F49BC0CD33D04701F7F801828188230D
:1005E00009F4BAC010928F010E94F41290938D0109
:1005F00080938C0180E296C0F801828181110E9473
:10060000850280E0DF91CF911F910F91FF90EF90D5
:100610000895F80182818823A1F3809159028160B5
:1006200080935902EECFF8018281882309F4BACF72
:100630000E945512811102C00E943B120E94721248
:1006400090E09093600280935F02FE01E350F047D8
:1006500080915F028160E231F10538F4E255F04E9D
:100660000C945C1F80915F02826080935F02809196
:100670005F020E9476120E94320BC3CF80915F020C
:100680008460F3CF80915F028860EFCF80915F023A
:100690008061EBCF80915F028062E7CF80915F0243
:1006A0008064E3CF80915F028068DFCF80915F023A
:1006B0008C60DBCF80915F028E7FD7CF80915F020D
:1006C0008D7FD3CF80915F028B7FCFCF80915F02F0
:1006D000877FCBCF80915F028F7EC7CF80915F02F3
:1006E0008F7DC3CF80915F028F7BBFCF80915F02F0
:1006F0008F77BBCF80915F02837FB7CF90915F02EE
:10070000892F97FB87F98058B0CFF8018281882321
:1007100061F010928E010E94F41290938D018093EB
:100720008C0182E00E9493086CCF80918E01811130
:100730000FC080918C0190918D010E940013883C24
:10074000910530F486E20E94E20786E20E944408A6
:1007500082E00E949A0855CF80918F0181110FC0CD
:1007600080918C0190918D010E940013883C91052D
:1007700030F487E20E94E20787E20E94440880E2A8
:10078000E8CF0C9499050C949B050C9480020C9472
:10079000C5030895972F70E02DE0929F600D711DA5
:1007A0001124FB0191E4899FE00DF11D1124EE0F4E
:1007B000FF1FE455FF4F859194910895FC01EE0FC2
:1007C000FF1FEC54FD4F8591949108950E94CA0338
:1007D0000E94CE049C0181159044F0F5211580E320
:1007E000380708F0AFC0203E3105F0F4203C310559
:1007F00008F090C0283A310570F4253A310508F028
:100800008DC02130310529F0C9010497813A910545
:1008100040F4C9010895C901885A9109459708F41F
:1008200086C030E020E0F5CF211540E2340770F4B7
:100830002F3F310509F068F7283E310550F3C90113
:10084000805F91093065409720F3EBCFC9019F701D
:100850000E94DE039C01DDCF211584E5380708F0F6
:1008600042C0211543E5340708F077C0211582E521
:10087000380740F5211541E5340708F069C0211516
:1008800080E5380708F461C0C90154E09695879562
:100890005A95E1F7382F3370822F869586958370AD
:1008A00040E2849FC0011124932B422F437021E02A
:1008B00030E002C0220F331F4A95E2F7282B392B74
:1008C0003C68A7CFA9014370552781E090E002C0A2
:1008D000880F991F4A95E2F72695269540E2249FB6
:1008E00090011124EBCF211586E5380750F4922FA3
:1008F00088272115354508F044C09C01246F306AD3
:1009000088CFC90190563F708115904108F089CF7A
:1009100030627FCFC901805C91099ACF253A3105B9
:10092000A1F1263A3105A1F123E830E472CF283A4B
:10093000310589F1220F331FF901EF53F040208177
:10094000318167CF3327306C64CF3F70306A61CF1D
:10095000322F2227216F306A5CCFA90143705527BF
:1009600081E090E002C0880F991F4A95E2F7269532
:10097000269540E2249F90011124282B392B3A68B8
:1009800048CF88279F719C01C3CF21E830E441CF35
:1009900022E830E43ECF22EE34E43BCF803E9105A6
:1009A00081F1C8F48133910509F462C048F48932B9
:1009B000910509F456C08A32910509F460C0089582
:1009C00089339105B9F082389105A1F085339105FD
:1009D00009F440C00895863E910561F138F4823EE5
:1009E0009105B1F0833E9105E1F00895873E9105B0
:1009F00051F1089520915F022370D9F080EE90E0CC
:100A0000089520915F0220FF14C089E390E00895CB
:100A100020915F0222FF0DC024FD09C083EE90E00B
:100A2000089520915F0222FD31C024FF02C090E0B2
:100A300080E0089520915F0223FFFBCF24FDF7CFD4
:100A400087EE90E0089520915F0223FFEECF86EEBF
:100A500090E0089520915F0225FFEBCF89E290E0BE
:100A6000089520915F0225FFE4CF85E390E008958B
:100A700020915F0226FFDDCF8AE290E00895209169
:100A80005F0226FFD6CF81E390E0089582EE90E0EA
:100A9000089508950F931F93CF938C01FB018281DA
:100AA000811106C0C1E08C2FCF911F910F91089545
:100AB000C0919D01C11125C00531104799F70E94D1
:100AC000490581E080939D010E94F41290939C015E
:100AD00080939B01109290011092920110929101CB
:100AE0001092940110929301109296011092950128
:100AF000109298011092970110929A011092990108
:100B0000D2CF80919B0190919C010E940013883C60
:100B1000910540F680919001E82FF0E0EE0FFF1F65
:100B2000EF56FE4F118300838F5F80939001C0E0EA
:100B3000BACF0C947C020C947D0285B7806885BF87
:100B400085B7806885BFA8E4B1E04DE451E061E07D
:100B500070E08D91E82FE295EF70F0E091A18F7039
:100B60009B0101C0220F8A95EAF7822F8095892385
:100B700081A382A1822B82A34A175B0751F7ABE3C3
:100B8000B1E048E451E061E070E08D91E82FE2953A
:100B9000EF70F0E091A18F709B0101C0220F8A9548
:100BA000EAF7822F8095892381A382A1822B82A3D9
:100BB0004A175B0751F78AE0E8EAF1E0DF01982F76
:100BC0001D929A95E9F7EEE9F1E0DF011D928A9511
:100BD000E9F70C94C1032F923F924F925F926F926C
:100BE0007F928F929F92AF92BF92CF92DF92EF92BD
:100BF000FF920F931F93CF93DF939EE9292E91E0ED
:100C0000392E28E4E22E21E0F22E38EA832E31E05C
:100C1000932E01E010E066246394E101A990B9905D
:100C20001E01DE011E921E92F70181917F01E82FC5
:100C3000E295EF70F0E091A18F70A80101C0440F20
:100C40008A95EAF7892F842B81A382A1742E709450
:100C5000872182A380EA8A95F1F78BE3C82E81E091
:100C6000D82E90E080E0E60159906E01252D229566
:100C70002F70205E30E0E90148806D917C911197E2
:100C8000252D2F70E80102C0CC0FDD1F2A95E2F759
:100C90009E01242109F054C09801082E02C0220FA1
:100CA000331F0A94E2F7622B732B11967C936E9399
:100CB00001968D309105B9F681A1782271A282A1A9
:100CC000842B82A38D919C91A816B90641F0609265
:100CD000B2010E94F4129093B4018093B301821484
:100CE000930409F09ACF8091B201882399F0809102
:100CF000B3019091B4010E940013069758F08AE066
:100D0000EEE9F1E0A8EAB1E001900D928A95E1F7F1
:100D10001092B2010E94C30381E0DF91CF911F9135
:100D20000F91FF90EF90DF90CF90BF90AF909F908A
:100D30008F907F906F905F904F903F902F9008958D
:100D400020E030E0B0CFE82FF0E0EE0FFF1FE855D5
:100D5000FE4F80819181089508959093BA01809308
:100D6000B9010895E091B901F091BA01309721F0ED
:100D70000190F081E02D099480E00895E091B9019F
:100D8000F091BA01309721F00280F381E02D0994AF
:100D90000895E091B901F091BA01309721F00480F3
:100DA000F581E02D099408952091B7013091B801A3
:100DB0002817390771F09093B8018093B701E0913B
:100DC000B901F091BA01309721F00680F781E02D4A
:100DD000099408952091B5013091B601281739077B
:100DE00071F09093B6018093B501E091B901F09153
:100DF000BA01309721F00084F185E02D099408951F
:100E000008950C9400070E94EB120E949D050C941B
:100E1000B5137F928F929F92AF92BF92CF92DF9243
:100E2000EF92FF920F931F93CF93DF9300D000D0E8
:100E30000F92CDB7DEB70E94EB059CEBA92E91E097
:100E4000B92E10E000E088248394912C702E802F1E
:100E50000E94A3067C01F501C190D1905F01C816E4
:100E6000D90609F45CC08091590281FD0E94AC064C
:100E700096012E253F2590E080E06401082E02C0F7
:100E8000CC0CDD1C0A94E2F7A60142235323452B28
:100E900009F440C089837A82EC20FD2081E0EF28AC
:100EA00009F480E08B830E94F4128160782F9D8387
:100EB0008C8349815A816B81892F0E94B907000F69
:100EC000111FF801E454FE4F808191818C259D25EE
:100ED000918380830E9440160E94B2069091BB01CC
:100EE0008917A1F10E94B2068093BB010F900F9069
:100EF0000F900F900F90DF91CF911F910F91FF9066
:100F0000EF90DF90CF90BF90AF909F908F907F90A9
:100F10000C94C70301968D30910509F0AECF0F5F99
:100F20001F4F0530110509F091CF8FEF89838A8318
:100F30001B820E94F4128160782F9D838C834981EB
:100F40005A816B81892F0E94B907C4CF0F900F90EF
:100F50000F900F900F90DF91CF911F910F91FF9005
:100F6000EF90DF90CF90BF90AF909F908F907F9049
:100F70000895CF93DF93CDB7DEB72B970FB6F894D4
:100F8000DEBF0FBECDBF4F83588769877A878B87B7
:100F90001E8285E0FE013796DE01119601900D92CA
:100FA0008A95E1F749815A816B817C818D819E818F
:100FB0002B960FB6F894DEBF0FBECDBFDF91CF9159
:100FC0000C949F0D882309F45EC0823871F40E944E
:100FD000B20681FD58C089E30E9444110E940C12A0
:100FE00089E30E9480110C940C12833859F40E94FA
:100FF000B20680FD48C083E50E9444110E940C1295
:1010000083E5EFCF843859F40E94B20682FD3BC0DD
:1010100087E40E9444110E940C1287E4E2CF9CEF07
:10102000980F913A18F40E944411DDCF90E2980F86
:10103000983050F4877091E001C0990F8A95EAF7D3
:10104000892F0E94C311CFCF9BE5980F933070F486
:10105000853A31F0863A39F083E890E00C94D40672
:1010600081E890E0FBCF82E890E0F8CF885A8531A4
:1010700050F4E82FF0E0EE0FFF1FE35BFE4F80819E
:1010800091810C94EA060895882309F44BC08238B4
:1010900071F40E94B20681FF45C089E30E944411A9
:1010A0000E940C1289E30E9480110C940C12833868
:1010B00059F40E94B20680FF35C083E50E944411B6
:1010C0000E940C1283E5EFCF843859F40E94B206D7
:1010D00082FF28C087E40E9444110E940C1287E41A
:1010E000E2CF9CEF980F913AF0F290E2980F98308F
:1010F00050F4877091E001C0990F8A95EAF7892F23
:101100000E94C911D2CF9BE5980F933020F490E054
:1011100080E00C94D406885A853120F490E080E079
:101120000C94EA060895882321F00E94C3110C94C0
:101130000C120895882321F00E94C9110C940C12FE
:1011400008958F929F92AF92BF92DF92EF92FF929B
:101150000F931F93CF93DF9300D000D00F92CDB7A2
:10116000DEB77C016D837983FC01058102950F70E8
:10117000128111110E94E2110E943D11D82E882384
:1011800071F01123A1F08D81805E883080F082E0C3
:101190000E9427110E943D1191E0D82ED926E981A5
:1011A000E295EF70F0E0E054F04E0C945C1FD12C0F
:1011B000F6CF09810F70F981F07F11F00295007F61
:1011C0001123B1F0002361F08D81805E883018F02A
:1011D0002D81211109C0802F0E94C3110E940C1281
:1011E0008D810E94E20715C0802F0E94D411F6CF96
:1011F0008D810E944408002361F08D81805E8830DB
:1012000018F03D81311129C0802F0E94C9110E9420
:101210000C12DD2009F4D7C10E941A1180FDD3C140
:10122000F70112820E9414110E945F0FC7010E94F1
:10123000F40A0E9414110F900F900F900F900F90CE
:10124000DF91CF911F910F91FF90EF90DF90BF90B2
:10125000AF909F908F900C94800F802F0E94DA1196
:10126000D6CF49814F70B42E5981507F503219F03A
:10127000B29480EFB8228D81882369F0813029F102
:10128000112369F1002359F0F701858180FFA8CF70
:101290008F70858304C0112361F0011104C08B2D70
:1012A0000E949308B6CF8B2D0130D1F70E94F61122
:1012B000B0CF011106C00E94F9118B2D0E949A082F
:1012C000A8CF013009F4A5CFF6CF112321F00630C5
:1012D00008F09FCFE4CF053008F09BCFEECF00237E
:1012E00061F38D810E94440894CF8981869586950B
:1012F000837069F0813009F08CCF8D819981937072
:10130000111102C090E080E00E94EA0682CF8D8138
:1013100099819370111102C090E080E00E94D40680
:1013200078CF8D81112329F00E9470150E94351607
:1013300070CF0E94C215FACF8981837009F05FC017
:10134000111167CF2D81229526952770220F220F2C
:101350008D818F7090E0B0E0A0E04C015D01022E25
:1013600004C0880C991CAA1CBB1C0A94D2F7FD81EE
:1013700060E070E0CB01F4FF0FC06FE070E080E050
:1013800090E004C0660F771F881F991F2A95D2F737
:101390006095709580959095298126952695237066
:1013A0002D832230B1F0233019F19B01AC012829A3
:1013B00039294A295B2929833A834B835C833D8100
:1013C00069817A818B819C813130B1F00E94EC0E71
:1013D00020CF9B01AC01282939294A295B2929837F
:1013E0003A834B835C83CA01B9010E94160F11CF67
:1013F0000E94EC0EC501B4010E94C20E0ACF112357
:1014000009F447C0398130FF04CF2D8122952695FC
:101410002770220F220F8D818F7090E0B0E0A0E046
:101420004C015D01022E04C0880C991CAA1CBB1C37
:101430000A94D2F75D8160E070E0CB0154FF0FC0E9
:101440006FE070E080E090E004C0660F771F881FB7
:10145000991F2A95D2F76095709580959095E981AE
:10146000E695E695E370ED83E230F1F0E33059F173
:101470009B01AC01282939294A295B2929833A8310
:101480004B835C83E13049F0CA01B9010E94F00F3F
:10149000C0CE498141FFBDCEB8CF69817A818B81B1
:1014A0009C810E94C60FB5CE9B01AC012829392929
:1014B0004A295B2929833A834B835C83CA01B9019A
:1014C0000E941A10A6CE0E94F00FC501B401E9CF08
:1014D0003D81323F09F447C080F4303F79F1313F1C
:1014E000D9F1832F805E8031D0F0112309F456C0EA
:1014F000011176CE89818F7133C04D81433FD1F187
:10150000443F99F7112309F43FC089818F71898382
:101510000E945F0F63E089810E941E117ACE5D8177
:101520005F705D8389818F71112321F00E945F0FAD
:101530008D81B6CE0E94800F8D81C0CE112341F0E7
:10154000053008F066CE89818F710E94A50F61CEAB
:10155000063008F05ECEF7CF89818F71112339F004
:101560000E945F0F56CE89818F711123C9F30E94AB
:10157000800F4FCE112329F089818F710E944A0F6D
:1015800048CE0E94400F45CE81E00E9427110230D4
:1015900008F43FCE82E00E9427113BCE0111A1CE7C
:1015A00089818F71E4CF49814F706D81C7010E949D
:1015B00079020E94390E2DCE49814F706D81C7018D
:1015C0000E94C90326CE0F900F900F900F900F909E
:1015D000DF91CF911F910F91FF90EF90DF90BF901F
:1015E000AF909F908F9008950F931F93CF93DF93A9
:1015F000EC01988189812B813C81232B19F089236F
:101600008F3F29F4DF91CF911F910F910895CE0163
:101610000E9492028823B1F3688179818A810E94B5
:10162000EA108C010E9444100E94B70EB801CE014E
:10163000DF91CF911F910F910C94A1080E94E211AC
:101640000E94F3110E94B5110E940C120E942617ED
:101650000E94351690E080E00E94D40690E080E081
:101660000C94EA060E94D1110C941E0B0E94DE100D
:10167000282F892F82958F70903C80F48A30B0F4A7
:10168000843020F4823090F480E008958630E1F7D1
:1016900081E0203E88F0213FB9F70EC08C3011F078
:1016A0008F3091F793FB882780F9089581E0203FE0
:1016B00039F018F4203E40F70895243F29F7FCCF75
:1016C0000895CF93DF9300D000D00F92CDB7DEB74F
:1016D0000F900F900F900F900F90DF91CF91089582
:1016E000CF93DF9300D000D000D0CDB7DEB72696E1
:1016F0000FB6F894DEBF0FBECDBFDF91CF91089536
:101700001F93CF93DF93E091C70116E08091C8014A
:101710008E1304C0DF91CF911F910895CE2FD0E09A
:101720001E9FF0011124E753FE4F408151816281D9
:101730007381848195810E94700B2196EC2FE77054
:10174000E5CF4091F9015091FA016091FB01709150
:10175000FC018091FD019091FE010C94700BCF93E0
:101760008091FE01807FA9F48091FB01882389F09C
:101770008091C701A091C8017091F9016091FA01AF
:101780004091FC015091FD01B62FB723C6E0A8138C
:1017900002C0CF91089590E04115510511F0BF3F6F
:1017A00031F401968770F3CF2150310919C0C89FD9
:1017B000F001C99FF00D1124E753FE4F2181621300
:1017C000F0CF20812713EDCF22812111EACF0380B2
:1017D000F481E02D9F01241B350BE417F50720F35E
:1017E000283C3105F0F62091FE012F7020612093F6
:1017F000FE0126E0289FF001299FF00D1124E253FD
:10180000FE4F80818F708061808389EF91E00E941C
:10181000F40ACF910C94800B9F92AF92BF92CF921B
:10182000DF92EF92FF920F931F93CF93DF93CDB789
:10183000DEB72B970FB6F894DEBF0FBECDBF8C017D
:1018400085E0F801DE01179601900D928A95E1F787
:10185000D8011296EC9012973C9111962C91119709
:101860001396CD90DC904091F9015091FA0160916E
:10187000FC017091FD016115710529F0842F85230C
:101880008F3F09F046C1EE2009F455C18F8198853C
:101890000E94360B882309F44EC1F8C0C616D7063D
:1018A00028F1FF24F394883C910508F0F12C89EF8E
:1018B000A82E81E0B82E8091FE01982F907FF11024
:1018C00017C009F0F2C04F81588569857A858B85EC
:1018D0000E94610B89EF91E00E94F40A86E0D50135
:1018E0001D928A95E9F70E94A10B19C00197D9CFE3
:1018F0009111A8C0FE2C251325C0431323C0E1106D
:1019000021C08F7080618093FE010E94A10B89EF3E
:1019100091E00E94F40A8091FE01F80185838F2DE9
:101920002B960FB6F894DEBF0FBECDBFDF91CF91DF
:101930001F910F91FF90EF90DF90CF90BF90AF90ED
:101940009F900895CD2829F0822F83238F3F09F09F
:1019500076C080E0F82FF170DF2EE091C701409152
:10196000C80156E080FD1CC0EE20C9F28091FE0146
:1019700081608093FE01F12CD2CF8E2F90E05E9F8C
:10198000F0011124E753FE4F6181261306C06081E8
:10199000361303C06281E612E7CF0196E82FE770A5
:1019A000E413EBCF8F8198850E94DE10292F2295BA
:1019B0002F70903268F0225F2F70223080F49F7079
:1019C00059F0D80115969C91907F31F4D12C0AC022
:1019D0009F7011F08823D1F3805E8830B8F3C8017E
:1019E0000E94F40AFD2C9BCF01979EC086E0F8016F
:1019F000A9EFB1E001900D928A95E1F790CF8F8128
:101A000098850E94360B811141C08091FE01816052
:101A10008093FE01C8010E94F40A81CF4F8158854E
:101A200069857A858B850E94610B86E0E9EFF1E09C
:101A3000DF011D928A95E9F70E94A10B9CCF81E0FE
:101A40008E2588CF251306C0431304C0F801EE206D
:101A500009F452C08F8198850E94360B882309F4BF
:101A60006AC0EE2009F467C08091FE01803270F0F8
:101A70002091F9013091FA013A8329831B82DD829A
:101A8000CC828E83CE0101960E94F40A86E0F80192
:101A9000A9EFB1E001900D928A95E1F70E94AF0B9A
:101AA0000E94A10BFF24F3943ACF2513D3CF431305
:101AB000D1CFE110CFCFF8018583C8010E94F40A8D
:101AC00086E0D5011D928A95E9F7F92C28CF2513D8
:101AD00096CF431394CF8091FE0180FD87CF982F3E
:101AE000907F09F483CFF8018583903F31F0982FE0
:101AF000907F905F8F70892B8583C8010E94F40AC4
:101B000086E0F801A9EFB1E001900D928A95E1F726
:101B1000EACE9090FB01C601861B970B9110BECEBA
:101B2000C616D70608F460CF883C910508F076CF3A
:101B3000FE2CE110CCCFC8010E94F40AB3CF1F9352
:101B4000CF93DF93CDB7DEB72C970FB6F894DEBFF7
:101B50000FBECDBF4F83588769877A878B879C8755
:101B6000CE0107960E940C0C882369F08A859B851C
:101B7000892B39F058854F81852F84238F3F09F0B9
:101B800071C016E05FC086E0FE013796DE01119657
:101B900001900D928A95E1F78F8198852091C80177
:101BA0004091C7016A857B85672B59F389238F3F55
:101BB00041F330E0C901019687709927481719064B
:101BC00071F40E94320B1092C8011092C70186E096
:101BD000E9EFF1E0DF011D928A95E9F7D2CF96E0B7
:101BE000929FD001939FB00D1124A753BE4FFE01C9
:101BF000319601900D929A95E1F78093C8010E9469
:101C0000800BBFCF819FC001112487539E4F0E943C
:101C10000C0C8823E9F0E091C7011E9FF00111240C
:101C2000E753FE4F408151816281738184819581A8
:101C30000E94700B8091C70190E0019687709927F0
:101C40008093C7018091C7019091C8018913DACFB1
:101C50002C960FB6F894DEBF0FBECDBFDF91CF91AB
:101C60001F91089569857A858B859C850E94700BEC
:101C700088CFEF92FF920F931F93CF93DF938C0146
:101C8000892B89F0F12CEE24E394E8012196F801E8
:101C90008491843709F458C0A0F4823009F43FC01D
:101CA00048F48130D1F0DF91CF911F910F91FF90D7
:101CB000EF9008959CEF980F9037A8F70E94E207E5
:101CC0000AC0853709F44EC09CE7980F903758F743
:101CD0008F770E9444088E0116C00E5F1F4FFE01D1
:101CE000849190E2980F983060F48770FE2D01C0C7
:101CF000FF0F8A95EAF78F2F0E94E5110E940C12C0
:101D000002C00E94E2078F2D882309F4BECFEFE9BD
:101D1000FFE03197F1F700C000008150F5CF0E5F72
:101D20001F4FFE01849190E2980F983050F4877015
:101D3000FE2D01C0FF0F8A95EAF78F2F0E94EB114D
:101D4000DDCF0E944408DFCF0E5F1F4FFE01C4911C
:101D5000CC23C9F28FE99FE00197F1F700C00000A2
:101D6000C150F6CF0E5F1F4FFE01F490CCCF089507
:101D70006093300270933102809332029093330269
:101D80000C941E0BCF93DF9300D000D0CDB7DEB7FD
:101D900069837A838B839C83809130029091310296
:101DA000A0913202B091330229813A814B815C814A
:101DB000822B932BA42BB52B80933002909331026E
:101DC000A0933202B09333020F900F900F900F90B8
:101DD000DF91CF910C941E0BCF93DF9300D000D0F6
:101DE000CDB7DEB769837A838B839C838091300281
:101DF00090913102A0913202B091330229813A814F
:101E00004B815C8182239323A423B52380933002EA
:101E100090933102A0933202B09333020F900F904F
:101E20000F900F90DF91CF910C941E0BCF93DF9307
:101E300000D000D0CDB7DEB769837A838B839C83D3
:101E40008091300290913102A0913202B091330220
:101E500029813A814B815C8182279327A427B5276A
:101E60008093300290933102A0933202B0933302F8
:101E70000F900F900F900F90DF91CF910C941E0B4D
:101E800010922C0210922D0210922E0210922F020C
:101E90000C941E0B41E050E060E070E004C0440F81
:101EA000551F661F771F8A95D2F740932C025093D7
:101EB0002D0260932E0270932F020C941E0B41E0B2
:101EC00050E060E070E004C0440F551F661F771FAC
:101ED0008A95D2F780912C0290912D02A0912E022A
:101EE000B0912F02842B952BA62BB72B80932C021D
:101EF00090932D02A0932E02B0932F020C941E0BF0
:101F000041E050E060E070E004C0440F551F661FE0
:101F1000771F8A95D2F7409550956095709580917E
:101F20002C0290912D02A0912E02B0912F028423B9
:101F30009523A623B72380932C0290932D02A09380
:101F40002E02B0932F020C941E0B41E050E060E093
:101F500070E004C0440F551F661F771F8A95D2F7A3
:101F600080912C0290912D02A0912E02B0912F020F
:101F700084279527A627B72780932C0290932D02BC
:101F8000A0932E02B0932F020C941E0BCF93DF93DD
:101F900000D000D0CDB7DEB769837A838B839C8372
:101FA00080912C0290912D02A0912E02B0912F02CF
:101FB00029813A814B815C81822B932BA42BB52BF9
:101FC00080932C0290932D02A0932E02B0932F02A7
:101FD0000F900F900F900F90DF91CF910C941E0BEC
:101FE000CF93DF9300D000D0CDB7DEB769837A837B
:101FF0008B839C8380912C0290912D02A0912E02C4
:10200000B0912F0229813A814B815C8182239323F5
:10201000A423B52380932C0290932D02A0932E022B
:10202000B0932F020F900F900F900F90DF91CF91F0
:102030000C941E0BCF93DF9300D000D0CDB7DEB74A
:1020400069837A838B839C8380912C0290912D02EB
:10205000A0912E02B0912F0229813A814B815C819F
:1020600082279327A427B52780932C0290932D02D3
:10207000A0932E02B0932F020F900F900F900F900D
:10208000DF91CF910C941E0B0895E82F2DE0929FC5
:10209000E00D11248E2F877041E001C0440F8A9516
:1020A000EAF7E695E695E69585E0E89FF0011124CC
:1020B000E150FE4F30E020E070E05191DF011197D8
:1020C000CB01022E02C0969587950A94E2F78170A3
:1020D00081958527842385278C932F5F3F4F25305B
:1020E000310559F70895E82F2DE0929FE00D112456
:1020F0009E2F9770E695E695E69585E0E89FF001BE
:102100001124E150FE4F50E040E080E0219130E0AA
:10211000092E02C0369527950A94E2F721703327DD
:10212000042E01C0220F0A94EAF7822B4F5F5F4F03
:102130004530510559F70895BF92CF92DF92EF9243
:10214000FF920F931F93CF93DF938C01C0902C02CB
:10215000D0902D02E0902E02F0902F02809130025C
:1021600090913102A0913202B0913302C82AD92A4B
:10217000EA2AFB2ACFE1D0E0BC2ED701C6010C2E03
:1021800004C0B695A795979587950A94D2F780FDD8
:102190000EC0219788F7B12C8B2DDF91CF911F9125
:1021A0000F91FF90EF90DF90CF90BF900895B8010E
:1021B0008C2F0E94E603019761F3EECFCF93DF935C
:1021C000D82FC92F0E949C106D2F7C2FDF91CF91AB
:1021D0000C94E6031F93CF93DF93162FD72F909184
:1021E000C601992339F0862F972FDF91CF911F9148
:1021F0000C94DE10882391F0862F972F0E949C105C
:10220000C82F682F812F9D2F0E944510612F7D2F91
:102210008C2FDF91CF911F910C94E603862F972F7F
:102220000E947310C82FF2CF809134028595859556
:1022300085950895809134028770089598E0899F6C
:1022400090011124622B609334020C945F0F9091E3
:1022500034028095892380933402282F277061F4FB
:10226000282F082E000C330B9217130629F08595A2
:10227000859585950C94800F089590913402977000
:1022800081E009F480E00895909112019923D9F03A
:1022900090915F0297FF17C0982F96959695969507
:1022A0009F3131F1E0910001F0910101E90FF11D41
:1022B000877021E030E001C0220F8A95EAF7818122
:1022C000822B818308952091000130910101F90151
:1022D00032969FEF40E05191851751F09F3F19F4DE
:1022E000511101C0942F4F5F4E31A9F79F3F09F460
:1022F0000895290F311D97FD3A95F90182830895BC
:10230000909112019923F9F090915F0297FF1BC001
:10231000982F9695969596959F3131F1E091000111
:10232000F0910101E90FF11D877021E030E0A90172
:1023300002C0440F551F8A95E2F7CA01809591812A
:102340008923818308952091000130910101F901D1
:102350003296205E3F4F9191891303C0DF011197A0
:102360001C92E217F307B9F7089581E090E0E0913D
:102370000001F0910101E80FF91F108201968032EF
:102380009105A9F7089590915802982B90935802BF
:102390000895982F90958091580289238093580230
:1023A000089510925802089590915702982B909397
:1023B00057020895982F9095809157028923809312
:1023C0005702089510925702089590915602982B43
:1023D000909356020895982F9095809156028923E4
:1023E0008093560208951092560208958093350204
:1023F0000895109235020895209100013091010155
:10240000F9013196205E3F4F80E0919191118F5FED
:10241000E217F307D1F70895E0910001F09101016F
:10242000809158028083E0910001F0910101808148
:1024300090915702892B8083E0910001F091010176
:10244000808190915602892B808390913502992347
:1024500061F0E0910001F09101018081892B80837E
:102460000E94FC118111109235028091000190911F
:1024700001010C94BE066DEE7EEF90E080E00E94BC
:10248000961F60E082E090E00E94841F60E083E09D
:1024900090E00E94841F60E084E090E00E94841F2E
:1024A00060E085E090E00C94841F90E080E00E9462
:1024B0007E1F9C0181E02D3E3E4F09F080E0089593
:1024C00082E090E00C94761F682F82E090E00C94FC
:1024D000841F83E090E00C94761F682F83E090E0E7
:1024E0000C94841F84E090E00C94761F682F84E0A5
:1024F00090E00C94841F80918F02843039F1109207
:102500005A0288E190E020E40FB6F894A8958093F1
:1025100060000FBE2093600080E00E94C70383B775
:10252000817F846083BF83B7816083BF78948895FF
:1025300083B78E7F83BF0FB6F894A8958091600013
:10254000886180936000109260000FBE0895089526
:102550000895CF930E94A7120E94EB050E94A81233
:10256000C0E08C2F0E94A306892B31F4CF5FC530C9
:10257000C1F780E0CF91089581E0FCCF0E94320B3B
:102580000E94B2060C94C7031F921FB61F9211241B
:102590008F939F93AF93BF9380915A02811113C081
:1025A00080915B0290915C02A0915D02B0915E020D
:1025B0004196A11DB11D80935B0290935C02A09394
:1025C0005D02B0935E02BF91AF919F918F911F907A
:1025D0001FBE1F90189582E084BD93E095BD9AEFD1
:1025E00097BD80936E0008952FB7F89480915B0299
:1025F00090915C02A0915D02B0915E022FBF0895A0
:10260000CF92DF92EF92FF929C014FB7F8948091A6
:102610005B0290915C02A0915D02B0915E024FBF9F
:102620006C017D01EE24FF24A90170E060E0C41676
:10263000D506E606F70638F0821B930BFF90EF9065
:10264000DF90CF9008950197F7CF1F921FB61F928A
:1026500011248F939F93AF93BF9380915B029091CE
:102660005C02A0915D02B0915E020196A11DB11DB8
:1026700080935B0290935C02A0935D02B0935E0234
:10268000BF91AF919F918F911F901FBE1F90189582
:102690000E941A1BF8942FEF87EA91E621508040A0
:1026A0009040E1F700C0000087E090EBDC018093F0
:1026B000990290939A02A0939B02B0939C0288E1A6
:1026C0009CE00FB6F894A895809360000FBE90939D
:1026D0006000FFCFAF92BF92CF92DF92EF92FF9256
:1026E0000F931F93CF93C0E0AA24A394B12CE82E9C
:1026F000F12C8C2F0E94A3066C0110E000E0C501B4
:10270000002E02C0880F991F0A94E2F78C219D21A8
:10271000892B99F0602F7C2F80E00E94CA03E81675
:10272000F90659F481E0CF911F910F91FF90EF903E
:10273000DF90CF90BF90AF9008950F5F1F4F0D3087
:102740001105E9F6CF5FC530A1F680E0ECCFCF935D
:10275000C82F8CE20E946A13882321F08C2FCF911E
:102760000C946A1380E0CF910895CF93DF9300D04B
:1027700000D0CDB7DEB70E945512811102C00E9471
:102780003B1295E6998308C00E94EB058FE39CE914
:102790000197F1F700C00000A981A150A983A11100
:1027A000F3CF89E20E94A713811110C18AE20E942F
:1027B000A71381110E943B1285E00E94A71381118B
:1027C0000E9448130E9460128093590287E00E9481
:1027D000A713882371F08BE10E94A713882309F4C3
:1027E000D1C090915902892F8D7F91FF8260809393
:1027F0005902809159020E9464120E94721290E064
:102800009093600280935F0280EE0E94A71388235A
:1028100041F090915F02892F8E7F90FF81608093BD
:102820005F0289E30E94A713882341F090915F0221
:10283000892F8D7F91FF826080935F0282EE0E94DC
:10284000A713882341F090915F02892F8B7F92FF1D
:10285000846080935F0286EE0E94A713882341F074
:1028600090915F02892F877F93FF886080935F023A
:1028700083EE0E94A713882341F090915F02892F75
:102880008F7E94FF806180935F0285E30E94A7138F
:10289000882341F090915F02892F8F7D95FF8062A0
:1028A00080935F0281E30E94A713882341F09091F7
:1028B0005F02892F8F7B96FF806480935F0281E1A6
:1028C0000E94A713882341F090915F02892F97FB04
:1028D00087F9805880935F0280915F020E94761290
:1028E00087E20E94A71389838EE10E94A7138823A1
:1028F00019F0B981B260B9838FE10E94A7138823D0
:1029000019F029812460298380E20E94A71388237B
:1029100019F039813860398381E20E94A713882336
:1029200019F049814061498382E20E94A7138823FC
:1029300019F059815062598383E20E94A7138823BA
:1029400019F089818064898384E20E94A713882317
:10295000B1F199819068998389810E946D123981C2
:10296000232F30E050E040E029833A834B835C839F
:10297000CA01B9010F900F900F900F90DF91CF9186
:102980000C94B80E8EE00E94A713882339F0909122
:102990005902892F8B7F92FF846029CF80E10E94AA
:1029A000A71390915902882329F0892F877F93FFDD
:1029B00088601DCF892F8E7F90FF816018CFA981FD
:1029C000A111CACF0E946912282FCBCF0F900F9070
:1029D0000F900F90DF91CF9108958091630280FF57
:1029E00012C06091050185E0689FB00111247595C2
:1029F00067957595679560387105A8F5611571053E
:102A0000A1F1862F089581FF09C06091050185E03D
:102A1000689FB001112475956795EDCF6091050110
:102A200082FD0AC0209164022223D1F0909104011A
:102A300060910501291728F085E0689FB0011124F5
:102A4000DACF269F9001112485E0829FA001839F09
:102A5000500D1124692F70E0CA010E94481FCBCF8E
:102A600065E070E0CECF8FE7089581E00895809112
:102A7000630280FF0CC06091030170E0759567955B
:102A8000759567956115710549F1862F089581FF48
:102A900006C06091030170E075956795F3CF609172
:102AA000030182FD0BC0909164029923A1F0609113
:102AB000020180910301961738F0682F70E06038AA
:102AC000710500F38FE70895899FC001112470E01C
:102AD0000E94481FF4CF61E070E0D7CF81E00895F5
:102AE000805F803108F045C0E82FF0E0E053F04E01
:102AF0000C945C1F0E94ED148195809367020895E9
:102B00000E94ED14FACF0E94ED1481958093660225
:102B100008950E94ED14FACF0E9437158093680241
:102B200008950E9437158195F9CF0E943715819538
:102B30008093690208950E943715FACF809165024B
:102B40008160809365020895809165028260F9CF6B
:102B5000809165028460F5CF809165028860F1CF35
:102B6000809165028061EDCF8091630281608093E6
:102B700063020895809163028260F9CF80916302BD
:102B80008460F5CFE82F3091670220916602909122
:102B9000680280916902E03F91F437FD109267026C
:102BA0008091660290916702892B90916802892B2F
:102BB00090916902892B11F4109264020895E13F0B
:102BC00019F413165CF3ECCFE23F29F427FFE8CFAA
:102BD00010926602E5CFE33F19F41216CCF3E0CF72
:102BE000E93F29F41916E4F610926802D9CFEA3FBA
:102BF00019F497FFD5CFF8CFEB3F29F487FFD0CF5B
:102C000010926902CDCFEC3F19F41816CCF3C8CF5F
:102C1000E45FEC3008F0C4CFF0E0E052F04E0C94EA
:102C20005C1F809165028E7F80936502B9CF809191
:102C300065028D7FF9CF809165028B7FF5CF809102
:102C40006502877FF1CF809165028F7EEDCF809105
:102C500063028E7F80936302A3CF809163028D7F96
:102C6000F9CF809163028B7FF5CF85E692E00E94D9
:102C7000C9060E94F4129093620280936102089543
:102C80001F93CF93DF9300D000D000D0CDB7DEB735
:102C900080916102909162020E940013AC018091C8
:102CA00064022091060130E0811106C020910701E5
:102CB0009AE0299F900111244217530788F0209130
:102CC0006602A0916702A98310916802B09169021F
:102CD000BE8321110FC09A2F912B9B2B09F0B2C0FC
:102CE00026960FB6F894DEBF0FBECDBFDF91CF9111
:102CF0001F9108958F3F19F08F5F80936402121621
:102D000024F40E94ED14809366028091660287FF8E
:102D100005C00E94ED1481958093660229811216E8
:102D200024F40E94ED14809367028091670287FF6C
:102D300005C00E94ED148195809367028091660220
:102D4000882309F455C0309167023D83332309F489
:102D50004FC0282F880F330B440B550B29833A8320
:102D60004B835C83CA01B9010E944F1E23E333E306
:102D700043E35FE369837A838B839C8369817A81F0
:102D80008B819C810E94B31E69837A838B839C8391
:102D900069817A818B819C810E94171E60936602F3
:102DA0008D81082E000C990BAA0BBB0B89839A838B
:102DB000AB83BC83BC01CD010E944F1E23E333E3F0
:102DC00043E35FE369837A838B839C8369817A81A0
:102DD0008B819C810E94B31E69837A838B839C8341
:102DE00069817A818B819C810E94171E60936702A2
:102DF000111624F40E9437158093680280916802AE
:102E000087FF05C00E9437158195809368029E81D7
:102E1000191624F40E943715809369028091690283
:102E200087FF05C00E943715819580936902269619
:102E30000FB6F894DEBF0FBECDBFDF91CF911F91CB
:102E40000C9435168F3F09F057CF68CF85E0E5E643
:102E5000F2E0DF011D928A95E9F710926402109268
:102E60006302089580918A020895CF93DF9300D082
:102E70000F92CDB7DEB720918F02243019F523E0F1
:102E800029838A839B832093E9008FEF9091E80048
:102E9000815095FD06C095ED9A95F1F700008111DE
:102EA000F5CF8091E80085FF0DC050E040E063E081
:102EB00070E0CE0101960E9492198091E8008E7711
:102EC0008093E8000F900F900F90DF91CF910895BD
:102ED000CF93DF9300D00F92CDB7DEB79C018091E6
:102EE0008F02843031F582E08983205831093B8399
:102EF0002A8383E08093E9008FEF9091E80081506E
:102F000095FD06C095ED9A95F1F700008111F5CF7A
:102F10008091E80085FF0DC050E040E063E070E084
:102F2000CE0101960E9492198091E8008E778093DD
:102F3000E8000F900F900F90DF91CF9108952091AE
:102F40008F022430F1F422E02093E9002FEF30913A
:102F5000E800215035FD06C035ED3A95F1F7000047
:102F60002111F5CF2091E80025FF0BC050E040E093
:102F700065E070E00E9492198091E8008E7780935E
:102F8000E8000895CF93DF93D82FC92F80918F0247
:102F90008430F1F4909112019923E9F090915F024D
:102FA00097FF19C08093E9008FEF9091E80081505E
:102FB00095FD06C095E19A95F1F700008111F5CFD6
:102FC0008091E80050E040E060E270E085FD1AC0CA
:102FD000DF91CF91089581E08093E9008FEF909188
:102FE000E800815095FD06C095ED9A95F1F7000037
:102FF0008111F5CF8091E80085FFEACF50E040E0F5
:1030000068E070E08D2F9C2F0E9492198091E8005B
:103010008E778093E80080E2ED2FFC2FAAE6B2E0E5
:1030200001900D928A95E1F7D3CF8091980281119A
:1030300009C00E941A1B0E94771B8091E2008460E5
:103040008093E200089510929802089508950895DB
:103050000C94BE1242E061EC81E00E94961A42E0BC
:1030600061EC82E00E94961A42E061EC83E00E94EB
:10307000961A42E261EC84E00C94961A80919102D7
:10308000893089F148F4823009F494C0833009F41E
:103090004FC0813041F008958A3009F47BC08B30F5
:1030A00009F461C0089580919002813A09F03FC00F
:1030B0008091E800877F8093E8008091940290914E
:1030C0009502892B61F460E28AE692E070E00E944A
:1030D000E1198091E8008B778093E800089560E023
:1030E00090E080E0F3CF80919002813201F58091F1
:1030F000940290919502009711F00397C1F480918A
:10310000E800877F8093E8008091E80082FF0BC091
:103110008091F10080938A028091E8008B77809300
:10312000E8000C94CA1A80918F028111EDCF0895A6
:1031300080919002813AD9F7809194029091950202
:10314000892BA9F78091E800877F8093E800809120
:10315000E80080FFFCCF809112018093F100809104
:10316000E8008E77DCCF80919002813201F7809168
:10317000940290919502892BD1F68091E800877F87
:103180008093E8000E94CA1A8091920280931201F3
:103190000C94320B80919002813249F68091E800C4
:1031A000877F8093E8000E94CA1A809193028093DF
:1031B0008B02089580919002813A09F0B8CF8091F6
:1031C000E800877F8093E8008091E80080FFFCCFD3
:1031D00080918B02C2CF84B7877F84BF0FB6F894EB
:1031E000A8958091600088618093600010926000D3
:1031F0000FBE80E880936100109261000E94010779
:103200000E941A1B0E94771B8091E20084608093C9
:10321000E20078940E94FD1D0E94030788E091E07F
:103220000E94AD0680918F02853019F00E94090737
:10323000F9CF0E947B1280918C02882399F30E941F
:10324000A912882379F30E947C19ECCF9C01DA0142
:10325000892F992783309105C1F068F48130910559
:1032600009F445C0029761F48DE690E024EE32E067
:103270002D933C93089581329105E1F0829739F1C5
:1032800090E080E030E020E0F3CFC90199272130C1
:1032900059F08230910559F0E0EEF2E0892B81F788
:1032A000849190E09F01E4CFE8ECF2E0F9CFE4EB09
:1032B000F2E0F6CF643020F7E62FF0E0EE0FFF1FCC
:1032C000ED57FE4F2081318189E090E0D1CF64300D
:1032D000B8F670E0FB01EE0FFF1FE558FE4F2081AE
:1032E000318169587E4FFB01808190E0C1CF82E13E
:1032F00090E021E533E0BCCF80E189BD82E189BD6A
:1033000009B400FEFDCF8091D8008F7D8093D80056
:103310008091E00082608093E0008091E00081FD78
:10332000FCCF0895AF92BF92CF92DF92FF920F939E
:103330001F93CF93DF936C01EB018A010E94E91A7E
:10334000F82E811123C00115110539F0F801808193
:103350009181C81BD90BC80ED91EB12CA12C209766
:10336000A9F08091E80085FD22C08091E8008E7769
:103370008093E80001151105A1F0F8018081918189
:103380008A0D9B1D9183808385E0F82E8F2DDF9120
:10339000CF911F910F91FF90DF90CF90BF90AF9092
:1033A00008950E94E91A8823D1F2F82EEFCFF60192
:1033B00081916F018093F1002197FFEFAF1ABF0A4F
:1033C000CECFFC01CB0120919602309197022617B7
:1033D000370790F0009729F42091E8002E7720938A
:1033E000E80040E0009751F4411108C08091E800E6
:1033F00082FF31C080E00895C901F3CF20918F0290
:103400002223A9F12530A9F12091E80023FD2DC048
:103410002091E80022FDEACF2091E80020FFE2CFD2
:103420003091F3002091F200009719F02830310517
:1034300058F041E02830310509F040E02091E800E3
:103440002E772093E800CECF41914093F100019771
:103450002F5F3F4FE9CF80918F02882341F0853065
:1034600041F08091E80083FFC1CF81E0089582E0C0
:10347000089583E00895FC01CB01209196023091DC
:1034800097022617370790F0009729F42091E8005B
:103490002E772093E80040E0009751F4411108C0D6
:1034A0008091E80082FF32C080E00895C901F3CF27
:1034B00020918F022223B1F12530B1F12091E80053
:1034C00023FD2EC02091E80022FDEACF2091E800E4
:1034D00020FFE2CF3091F3002091F200009719F025
:1034E0002830310558F041E02830310509F040E03E
:1034F0002091E8002E772093E800CECF44914093AE
:10350000F100319601972F5F3F4FE8CF80918F02F6
:10351000882341F0853041F08091E80083FFC0CFDF
:1035200081E0089582E0089583E00895982F973010
:1035300028F08F708093E90081E008959093E9006E
:10354000242F762F50E0981731F07091EC002091E5
:10355000ED005091F00021FD02C09F5FE8CF309157
:10356000EB003E7F3093EB003091ED003D7F3093D8
:10357000ED003091EB0031603093EB007093EC0084
:103580002093ED005093F0002091EE0027FDE5CF51
:1035900080E008958091900287FF13C08091E80039
:1035A00082FF06C08091E8008B778093E80004C01A
:1035B00080918F028111F2CF089580918F0288232C
:1035C000D9F38091E80080FFF8CF8091E8008E77F2
:1035D000ECCF2091E4003091E50095E6A90120911F
:1035E000EC00822F817020FF06C08091E80080FFF0
:1035F00006C080E008952091E80022FD1AC0809165
:103600008F02882389F0853089F08091EB0085FD59
:103610000FC02091E4003091E50042175307F9F202
:103620009150E1F684E0089582E0089583E00895E2
:1036300081E008950E94881B0E94901BE0EEF0E05C
:10364000808181608083E8EDF0E080818F778083E6
:1036500019BCA7EDB0E08C918E7F8C9380818F7E1A
:1036600080831092980208950F931F93CF93DF9356
:103670000E94881B0E94901BC8EDD0E088818F7744
:10368000888388818068888388818F7D888319BC3E
:1036900010928F0210928E0210928C0210928D0264
:1036A00000EE10E0F80180818B7F8083888181604B
:1036B000888342E060E080E00E94961AE1EEF0E04C
:1036C00080818E7F8083E2EEF0E080818160808364
:1036D000808188608083F80180818E7F80838881EB
:1036E00080618883DF91CF911F910F910895E8ED5C
:1036F000F0E080818F7E8083E7EDF0E08081816063
:10370000808384E082BF81E0809398020C94341B14
:10371000E8EDF0E080818E7F80831092E2000895D2
:103720001092DA001092E10008951F920F920FB6E6
:103730000F9211242F933F934F935F936F937F9337
:103740008F939F93AF93BF93EF93FF938091E1008B
:1037500082FF0BC08091E20082FF07C08091E100F0
:103760008B7F8093E1000E94FC1D8091DA0080FF36
:1037700019C08091D80080FF15C08091DA008E7F3B
:103780008093DA008091D90080FF94C080E189BDE8
:1037900082E189BD09B400FEFDCF81E080938F02F4
:1037A0000E9415188091E10080FF19C08091E2000D
:1037B00080FF15C08091E2008E7F8093E2008091AF
:1037C000E20080618093E2008091D8008062809363
:1037D000D80019BC85E080938F020E942718809141
:1037E000E10084FF29C08091E20084FF25C080E1D0
:1037F00089BD82E189BD09B400FEFDCF8091D8006A
:103800008F7D8093D8008091E1008F7E8093E100CE
:103810008091E2008F7E8093E2008091E2008160DF
:103820008093E20080918E02882309F449C084E0ED
:1038300080938F020E9428188091E10083FF29C0A5
:103840008091E20083FF25C08091E100877F809313
:10385000E10082E080938F0210928E028091E1005D
:103860008E7F8093E1008091E2008E7F8093E20062
:103870008091E20080618093E20042E060E080E0BD
:103880000E94961A8091F00088608093F0000E9458
:103890002618FF91EF91BF91AF919F918F917F91EA
:1038A0006F915F914F913F912F910F900FBE0F90AD
:1038B0001F90189519BC10928F020E94231872CF86
:1038C0008091E30087FD02C081E0B2CF83E0B0CFFA
:1038D0001F920F920FB60F921124FF920F931F9316
:1038E0002F933F934F935F936F937F938F939F9308
:1038F000AF93BF93CF93DF93EF93FF9309EE10E065
:10390000F8018081C091EC00C795CC27C7958F70D6
:10391000FC2EF82A1082C0EFD0E08881877F888350
:1039200078940E94B11CF801108288818860888395
:10393000CF2DCF70C083FF91EF91DF91CF91BF91D9
:10394000AF919F918F917F916F915F914F913F9137
:103950002F911F910F91FF900F900FBE0F901F900E
:1039600018951F93CF93DF93CDB7DEB7AA970FB605
:10397000F894DEBF0FBECDBF80E992E0FC01019656
:103980002091F100208322E088399207B9F70E9444
:103990003E188091E80083FF82C080919002909150
:1039A00091029A3008F07BC0E92FF0E0E451F04E2C
:1039B0000C945C1F803881F0823809F070C08091CF
:1039C00094028F708093E9008091EB0085FB88273B
:1039D00080F91092E90006C080918D0290918C02CE
:1039E000911182609091E800977F9093E800809316
:1039F000F1001092F1008091E8008E77F8C08823E2
:103A000009F4E5C0823009F04AC080919202811128
:103A1000E9C0809194028F7009F441C08093E9005D
:103A20002091EB0020FFDEC0933031F48091EB0059
:103A300080628093EB00D6C09091EB0090619093F0
:103A4000EB0021E030E001C0220F8A95EAF72093D5
:103A5000EA001092EA008091EB008860EACF8111C1
:103A60001EC0109192021F778091E3008078812B15
:103A70008093E3008091E800877F8093E8000E94B4
:103A8000CA1A8091E80080FFFCCF8091E300806833
:103A90008093E30082E0111183E080938F02809194
:103AA000E80083FF0AC08091E800877F8093E800E8
:103AB0008091EB0080628093EB00AA960FB6F89499
:103AC000DEBF0FBECDBFDF91CF911F91089580580B
:103AD000823028F780919202909193028C3D23E0EE
:103AE000920799F583E08A838AE289834FB7F89435
:103AF000DE01139620E03EE051E2E32FF0E0509328
:103B00005700849120FF03C082958F703F5F8F70B4
:103B10008A30C8F0895C90E08D939D932F5F2431AB
:103B200061F74FBF8091E800877F8093E8006AE2E9
:103B300070E0CE0101960E94E1198091E8008B7738
:103B40008093E800ACCF805DE6CFAE014F5F5F4F62
:103B5000609194020E942619BC01892B09F49FCF21
:103B60008091E800877F8093E80089819A810E9494
:103B70003B1AE3CF803809F092CF8091E800877F2D
:103B80008093E80080918E028093F10034CF811100
:103B900086CF90919202923008F081CF8091E80018
:103BA000877F8093E80090938E020E94CA1A8091CA
:103BB0008E02882311F084E005C08091E30087FD28
:103BC000FACF81E080938F020E942A1868CF8091FB
:103BD0009202813009F063CF81E0933009F080E0F8
:103BE00080938C021092E9008091E800877F809397
:103BF000E8000E94CA1A53CF0895CF9380918F0294
:103C0000882399F08091E900C091EC00C795CC27FA
:103C1000C7958F70C82B1092E9008091E80083FD52
:103C20000E94B11CCF70C093E900CF9108950E940B
:103C30001E1E6894B1110C94AD1E08950E94921E30
:103C400088F09F5798F0B92F9927B751B0F0E1F05D
:103C5000660F771F881F991F1AF0BA95C9F714C00D
:103C6000B13091F00E94AC1EB1E008950C94AC1EEE
:103C7000672F782F8827B85F39F0B93FCCF3869546
:103C800077956795B395D9F73EF4909580957095A3
:103C900061957F4F8F4F9F4F0895E89409C097FB20
:103CA0003EF490958095709561957F4F8F4F9F4F13
:103CB0009923A9F0F92F96E9BB279395F695879557
:103CC00077956795B795F111F8CFFAF4BB0F11F41A
:103CD00060FF1BC06F5F7F4F8F4F9F4F16C08823C1
:103CE00011F096E911C0772321F09EE8872F762FF7
:103CF00005C0662371F096E8862F70E060E02AF038
:103D00009A95660F771F881FDAF7880F9695879523
:103D100097F9089557FD9058440F551F59F05F3F8C
:103D200071F04795880F97FB991F61F09F3F79F0DD
:103D300087950895121613061406551FF2CF46955F
:103D4000F1DF08C0161617061806991FF1CF8695E1
:103D50007105610508940895E894BB2766277727C5
:103D6000CB0197F908950E94C61E0C94371F0E943C
:103D7000291F38F00E94301F20F0952311F00C9479
:103D8000201F0C94261F11240C94AD1E0E948A1E25
:103D900070F3959FC1F3950F50E0551F629FF0019E
:103DA000729FBB27F00DB11D639FAA27F00DB11DB7
:103DB000AA1F649F6627B00DA11D661F829F222740
:103DC000B00DA11D621F739FB00DA11D621F839FC7
:103DD000A00D611D221F749F3327A00D611D231F9D
:103DE000849F600D211D822F762F6A2F11249F57EB
:103DF00050409AF0F1F088234AF0EE0FFF1FBB1FEE
:103E0000661F771F881F91505040A9F79E3F5105AC
:103E100080F00C94201F0C94AD1E5F3FE4F3983E9D
:103E2000D4F3869577956795B795F795E7959F5F56
:103E3000C1F7FE2B880F911D9695879597F90895E8
:103E400097F99F6780E870E060E008959FEF80EC4D
:103E5000089500240A9416161706180609060895F0
:103E600000240A9412161306140605060895092E56
:103E70000394000C11F4882352F0BB0F40F4BF2BC5
:103E800011F460FF04C06F5F7F4F8F4F9F4F089505
:103E900097FB072E16F4009407D077FD09D00E94F7
:103EA000621F07FC05D03EF4909581959F4F0895C1
:103EB000709561957F4F0895EE0FFF1F0590F49167
:103EC000E02D0994AA1BBB1B51E107C0AA1FBB1F11
:103ED000A617B70710F0A61BB70B881F991F5A9596
:103EE000A9F780959095BC01CD010895F999FECF71
:103EF00092BD81BDF89A992780B50895A8E1B0E0F8
:103F000042E050E00C949E1F262FF999FECF92BDFF
:103F100081BDF89A019700B4021639F01FBA20BD8E
:103F20000FB6F894FA9AF99A0FBE08950196272FC2
:103F30000E94851F0C94841FDC01CB01FC01F999C0
:103F4000FECF06C0F2BDE1BDF89A319600B40D92E5
:103F500041505040B8F70895F894FFCF32033E0324
:103F6000420346034A034E03520356035A035E03B9
:103F7000620366036A036E03720376037A037E03A9
:103F8000D908D908310931097509910909090909BF
:103F90009C090909680A680AD30A09090909DC0A9F
:103FA0007A158015831589159E15A415A815AC15CD
:103FB000B0158C15911595159B15B415BA15BE1530
:103FC000111617161B161F162316D015D015D0154F
:103FD000D01527162D163116DA1CFF1C4F1DFF1C9D
:0C3FE0004F1D2F1D671D4F1DBA1DC71D72
:103FEC0036022808140A321E3217C2179F17681798
:103FFC00351701E944EA44B544B644B744CD44838B
:10400C0045CC448A45924594452146234624462571
:10401C0046264627462A46B344B4446697C63435EA
:10402C00F4F5F6F7313332369392919094E200E93D
:10403C0000EA00B500B600B700CD008301CC008AC1
:10404C000192019401210223022402250226022757
:10405C00022A02B300B400404D36391F04D2039C2F
:0C406C00036303F6020F03280341030066
:00000001FF
